:1000000000800020093A0200353A0200B9030100DD
:10001000353A0200353A0200353A0200353A02001C
:10002000353A0200353A0200353A0200353A02000C
:10003000353A0200353A0200353A0200096E0100F5
:1000400075170200517B0100F1FD0100353A0200F5
:10005000353A020011E20100353A0200353A020059
:10006000353A0200353A0200353A0200617B010060
:1000700095130100353A0200353A0200D5630100BC
:10008000353A0200353A0200353A0200353A0200AC
:10009000353A0200353A0200353A0200353A02009C
:1000A000353A0200353A0200353A0200353A02008C
:1000B000353A0200353A02005D130100353A02007C
:1000C000353A0200353A0200353A0200353A02006C
:1000D000D92D0200353A0200353A0200353A0200C5
:1000E00010B5054C237833B9044B13B10448AFF372
:1000F00000800123237010BD0007002000000000D5
:10010000F05D020008B5064B1BB106480649AFF387
:1001100000800648036813B1054B03B1984708BD3A
:1001200000000000F05D020004070020140600201B
:1001300000000000154B002B08BF134B9D46A3F594
:10014000803A00218B460F461348144A121A23F0B6
:10015000A9FD0F4B002B00D098470E4B002B00D071
:1001600098470020002104000D000D48002802D00F
:100170000C48AFF3008023F057FD2000290010F059
:10018000D5F923F03DFD00BF0000080000800020ED
:1001900000000000000000000007002008660020AA
:1001A000000000000000000080B582B000AF002316
:1001B0007B600FE00D4B7A6813F812200B497B68C7
:1001C0005B000B445B781046194617F055F97B68C5
:1001D00001337B607B68032BECDD0F200449012297
:1001E00017F000FD0837BD4680BD00BF00000020AD
:1001F0009103000080B584B000AF03463960FB7105
:100200000023FB73FB79002B02D0FB79082B01D96B
:100210000223FB73FB7B002B3CD1FB79082B36D1EF
:100220003B681B78032B2ED83B685B78012B20D8CA
:100230003B681B785A001A4B13441846052100F0FE
:1002400087F83B685B78002B09D13B681B781A461E
:10025000134B13F81230184617F00EFA16E03B68ED
:100260001B781A460E4B13F81230184617F0E6F9B1
:100270000CE03B681B785A00094B134418460021D8
:1002800000F066F806E00223FB7303E002E00A23B5
:10029000FB7300BFFB7B18461037BD4680BD00BF17
:1002A0000000002080B584B000AF03463960FB71C8
:1002B0000023FB73FB79002B02D0FB79082B01D9BB
:1002C0000223FB73FB7B002B37D1FB79082B31D149
:1002D0003B681B78032B2AD81A4B1B78002B02D0C3
:1002E0000423FB7329E03B681B785A00164B134428
:1002F0001846022100F02CF80023BB603B681B78F5
:100300001A46114B13F81230184617F0F1F9B8607D
:100310000C4B08221A703B681A780C4B1A70BB6899
:10032000DAB20A4B5A700F2017F088FC05E002235E
:10033000FB7302E00A23FB7300BFFB7B18461037F8
:10034000BD4680BD1C0700200000002020070020C3
:1003500080B584B000AF78600B46FB700023FB7360
:100360007B685B78FA789A420CD07B68FA785A708E
:100370007B681A787B685B781046194617F07CF822
:100380000346FB73FB7B18461037BD4680BD00BF9C
:1003900080B582B000AF7860064B1B780020022148
:1003A0001A46054B00F0CEFF024B00221A700837A8
:1003B000BD4680BD1C0700202007002080B582B00C
:1003C00000AF78603960094B00221A70074B3A6819
:1003D0005A61064B00221A71044B7A689A6000F049
:1003E0006DF8034618460837BD4680BD5407002007
:1003F00080B582B000AF0023FB7100F05FF80346C8
:10040000FB71FB79002B02D1062000F079F8FB7913
:1004100018460837BD4680BD80B582B000AF0023C6
:10042000FB71062017F05AFC0346FB71FB79184656
:100430000837BD4680BD00BF80B584B000AF78608E
:100440000023FB731B4B5A781A4B1A74194B7A68AA
:10045000013312681A60174B5B78022B17D1154BCA
:100460001B78002B12D1012000F0A0F80346FB738B
:10047000104B5B884FF47A7202FB03F306200E499F
:100480001A4617F0AFFB0346FB730BE00AE0094B7B
:100490001B78002B05D0002000F088F80346FB7382
:1004A000FFE700BF00F042F8FB7B18461037BD465F
:1004B00080BD00BF540700205505000080B582B004
:1004C00000AF0023FB710D4B9B68002B07D00B4B3B
:1004D00000225A7000F052F80346FB7102E0074B0D
:1004E00001225A70054B5A78044B1A74034B0022B0
:1004F000DA60FB7918460837BD4680BD54070020F6
:1005000080B584B000AF786016F0EAFDF860064B65
:100510005B69002B03D0044B5B69F868984700F0D7
:1005200005F81037BD4680BD5407002080B500AFE8
:10053000074B5B78002B03D0054B5B78012B06D172
:10054000034B9B68002B02D0062017F077FB80BD81
:100550005407002080B582B000AF7860064B5B780E
:10056000184600F023F800F009F87868FFF7C8FF94
:100570000837BD4680BD00BF5407002080B582B05B
:1005800000AF0023FB71074B9B68062006491A4603
:1005900017F028FB0346FB71FB7918460837BD4668
:1005A00080BD00BF540700200105000080B584B065
:1005B00000AF0346FB710023FB730123BB73FB7980
:1005C000012B02D0022B18D01BE0214B01221A7004
:1005D000012010F007FCBB7B002001211A4611F01E
:1005E00047FA0346FB73FB7B002B05D1022010F07A
:1005F00055FD0346FB731CE01BE0154B02221A70ED
:1006000017E0134B00221A70022010F0EBFBBB7BAB
:10061000002000211A4611F02BFA0346FB73FB7BE6
:10062000002B05D1002010F039FD0346FB73FFE7D6
:1006300000BFFB7B002B14BF00230123DBB2184655
:100640000FF09EFEFB7B18461037BD4680BD00BFF5
:100650005407002080B584B000AF0346FB7100232F
:10066000FB6010F0E1FA0346FB72FB7A012B0BDB17
:10067000022B02DD032B0DD006E0FB790120194689
:1006800017F072FDF86006E0FB79184622F096FE3E
:10069000F86000E000BFFB6818461037BD4680BD1B
:1006A00080B584B000AF78600B46FB7010F0BCFAE8
:1006B0000346FB73FB7B012B0CDB022B02DD032BC0
:1006C0000FD007E07B68FA785A707868012117F03C
:1006D00099FD07E0FB787868194622F0C5FE00BF57
:1006E00000E000BF1037BD4680BD00BF80B584B0BC
:1006F00000AF02460B46FA71BB710023FB73FB7916
:10070000012B01D10123FB73FB79002B02D0012BBC
:1007100003D005E00023FB7302E00123FB7300BF5D
:10072000FA7BBB791046194617F01EFD03461846A2
:100730001037BD4680BD00BF80B582B000AF786085
:100740000B46FB70FB787868194617F05BFD08379D
:10075000BD4680BD80B500AF002017F065FD80BDAF
:1007600080B582B000AF0023FB7110F05DFA034644
:10077000BB71BB79012B0ADB022B02DD032B09D0F5
:1007800005E0012017F0C2FD0346FB7103E00323DF
:10079000FB7100E000BFFB7918460837BD4680BDFD
:1007A00080B500AF0E4B00221A700D4BE9225A7033
:1007B0000B4BFF229A700A4B0022DA70084B002282
:1007C0001A71074B00225A71054B064AC3F83221B1
:1007D00008F06AFA0246024BC3F8362180BD00BF1A
:1007E0006C0700209D19000080B582B000AF7860D2
:1007F0000B467B807B88054879681A4604F080FAAE
:10080000034618460837BD4680BD00BF6C07002070
:1008100090B587B000AF02460B46FA71BB7100235A
:10082000FB6000237B61134B1B78012B1FD103233B
:100830003B6107F10C031846396904F0FDF9786152
:100840007B69002B13D07B6900221A707B69FA79CF
:100850005A707B69BA799A70FC68FB685B681846C5
:1008600004F032FA034620461946FFF719FF1C37F9
:10087000BD4690BD6C07002090B587B000AF3960D1
:1008800013460246FA71BB710023FB6000237B61B3
:10089000234B1B78012B3FD10C233B6107F10C0349
:1008A0001846396904F0C8F978617B69002B33D0A8
:1008B0007B69E1221A707B69FA795A707B69BA798F
:1008C0009A703B68DB7B5B429BB29AB27B69A3F870
:1008D00003203B689A7B7B695A713B681B899AB2FB
:1008E0007B69DA803B689A7A7B691A723B68B3F855
:1008F0000B309AB27B69A3F809203B685A7B7B696D
:10090000DA72FC68FB685B68184604F0DDF90346A0
:1009100020461946FFF7C4FE1C37BD4690BD00BFF8
:100920006C07002090B587B000AF13460246FA71FD
:100930000A46BA717B710023FB6000237B61154B73
:100940001B78012B22D104233B6107F10C031846CD
:10095000396904F071F978617B69002B16D07B69E5
:1009600055221A707B69FA795A707B69BA799A7044
:100970007B697A79DA70FC68FB685B68184604F07A
:10098000A3F9034620461946FFF78AFE1C37BD46E9
:1009900090BD00BF6C07002090B587B000AF0B463C
:1009A0003A600246FA71BB710023FB6000237B6151
:1009B000164B1B78012B26D107233B6107F10C0353
:1009C0001846396904F038F978617B69002B1AD030
:1009D0007B695F221A707B69FA795A707B69BA79F0
:1009E0009A707B69033318463968042223F051F961
:1009F000FC68FB685B68184604F066F9034620460D
:100A00001946FFF74DFE1C37BD4690BD6C07002010
:100A100090B587B000AF0B463A600246FA71BB71E1
:100A20000023FB6000237B61164B1B78012B26D132
:100A300011233B6107F10C031846396904F0FCF8F7
:100A400078617B69002B1AD07B695E221A707B6902
:100A5000FA795A707B69BA799A707B6903331846C0
:100A600039680E2223F015F9FC68FB685B681846AC
:100A700004F02AF9034620461946FFF711FE1C37F9
:100A8000BD4690BD6C07002090B587B000AF024610
:100A90000B46FA71BB710023FB6000237B61134B93
:100AA0001B78012B1FD103233B6107F10C03184670
:100AB000396904F0C1F878617B69002B13D07B6938
:100AC00052221A707B69FA795A707B69BA799A70E6
:100AD000FC68FB685B68184604F0F6F8034620469D
:100AE0001946FFF7DDFD1C37BD4690BD6C070020A1
:100AF00090B589B000AFBA607B600346FB730B46CC
:100B0000BB7300237B610023FB61184B1B78012B17
:100B100028D10E23BB6107F114031846B96904F00C
:100B20008BF8F861FB69002B1CD0FB6901221A705D
:100B3000FB69FA7B5A70BA7BFB69C3F80220FB6938
:100B4000BA68C3F80620FB697A68C3F80A207C6992
:100B50007B695B68184604F0B7F8034620461946DF
:100B6000FFF79EFD2437BD4690BD00BF6C070020F7
:100B700090B587B000AF0346FB710023FB600023F4
:100B80007B61144B1B78012B20D103233B6107F1C0
:100B90000C031846396904F04FF878617B69002B23
:100BA00014D07B6903221A700A4B9A787B695A70B9
:100BB0007B69FA799A70FC68FB685B68184604F0F8
:100BC00083F8034620461946FFF76AFD1C37BD46E9
:100BD00090BD00BF6C07002090B587B000AF034602
:100BE000FB710023FB6000237B61144B1B78012BFE
:100BF00020D103233B6107F10C031846396904F047
:100C00001BF878617B69002B14D07B696D221A7008
:100C10000A4B9A787B695A707B69FA799A70FC68FA
:100C2000FB685B68184604F04FF8034620461946F7
:100C3000FFF736FD1C37BD4690BD00BF6C07002096
:100C400090B589B000AF0346B9607A60FB730023AA
:100C50007B610023FB611B4B1B78012B2ED11023E2
:100C6000BB6107F114031846B96903F0E5FFF861A9
:100C7000FB69002B22D0FB690F221A70114B9A7866
:100C8000FB695A70FB69FA7B9A70FB69BA68033397
:100C90001068516818605960127A1A72FB697A6894
:100CA0000C3312681A607C697B695B68184604F033
:100CB0000BF8034620461946FFF7F2FC2437BD46E1
:100CC00090BD00BF6C07002080B400AFBD465DF84A
:100CD000047B7047B0B586B000AF03463960FB7146
:100CE0000023FB6000237B611C4B1B78012B31D15F
:100CF0001C233B6107F10C031846396903F09CFF84
:100D000078617B69002B25D07B690D221A70134B0B
:100D10009A787B695A707B69FA799A707B693A682C
:100D20000333106851689568D468186059609D60F5
:100D3000DC601069516918615961127E1A76FC688D
:100D4000FB685B68184603F0BFFF03462046194660
:100D5000FFF7A6FC1837BD46B0BD00BF6C070020EA
:100D600080B582B000AF0346FB71054B9A78FB79E2
:100D7000072011461A4603F019FE0837BD4680BD0C
:100D80006C07002080B582B000AF0346FB71054BB5
:100D90009A78FB790B2011461A4603F007FE0837B4
:100DA000BD4680BD6C07002080B582B000AF034611
:100DB000FB71054B9A78FB79E32011461A4603F044
:100DC000F5FD0837BD4680BD6C07002090B589B0A1
:100DD00000AFF8607A603B600B467B8100233B618B
:100DE0000023FB612E4B1B78012B56D109F0ACF987
:100DF0000346FB761F237B61FB7E83F00103DBB29E
:100E0000002B07D007F110031846796903F014FF8F
:100E1000F86101E0234BFB61FB69002B3DD0FB69CE
:100E2000C9221A70FB6900225A70FB69FA68C3F87C
:100E30000220FB697A89DA807B68B3F900309AB2C4
:100E4000FB691A817B689A78FB699A727B68D3F890
:100E50000320FB69C3F80B20FB6903F10F023B6819
:100E60000C3310461946102222F013FFFB7E83F04C
:100E70000103DBB2002B0BD03C693B695B68184671
:100E800003F022FF034620461946FFF709FC04E061
:100E90007B69F869194609F039F92437BD4690BDD8
:100EA0006C070020A808002090B589B000AF7860DA
:100EB00039600023FB600023FB613B685A78997816
:100EC00009020A43DB781B041343BB613B689A7A2F
:100ED000DB7A03F00F031B0213439BB2FB82374BF9
:100EE0001B78012B66D109F02FF903467B753B680F
:100EF0001B7B3B753B7D13333B617B7D83F00103A3
:100F0000DBB2002B07D007F10C031846396903F058
:100F100093FEF86108E03B69C72B02DC284BFB61BC
:100F200002E005200FF03AFFFB69002B42D0FB697D
:100F3000C7221A70FB6900225A70FB69BA69C3F8AC
:100F40000220FB69FA8ADA807B68B3F900309AB232
:100F5000FB691A817B689A78FB699A727B68D3F87F
:100F60000320FB69C3F80B20FB693A7DDA73FB6948
:100F700003F110013B6803F10D023B7D0846114669
:100F80001A4622F086FE7B7D83F00103DBB2002B44
:100F90000BD0FC68FB685B68184603F095FE0346BF
:100FA00020461946FFF77CFB04E03B69F8691946C7
:100FB00009F0ACF82437BD4690BD00BF6C07002097
:100FC000A808002090B589B000AFF8600B467A60A1
:100FD000FB7200233B610023FB610023FB762C4B5B
:100FE0001B78012B50D109F0AFF80346FB760F2395
:100FF0007B61FB7E83F00103DBB2002B07D007F19E
:1010000010031846796903F017FEF86103E0002326
:101010003B610023FB61FB69002B35D0FB69CB22D0
:101020001A70FB6900225A70FB69FA68C3F8022043
:10103000FB69FA7A9A717B681A78FB69DA717B68C6
:10104000B3F801309AB2FB691A817B68DA78FB69E0
:101050009A727B681A79FB69DA727B685A79FB6944
:101060001A737B689A79FB695A737B68DA79FB6932
:101070009A733C693B695B68184603F025FE03469A
:1010800020461946FFF70CFB2437BD4690BD00BF34
:101090006C07002090B587B000AF786039600023FE
:1010A000BB6000237B610023FB74304B1B78012B5A
:1010B00059D109F049F80346FB740F23FB60FB7C10
:1010C00083F00103DBB2002B07D007F108031846B9
:1010D000F96803F0B1FD786103E00023BB600023F1
:1010E0007B617B69002B3ED07B69C8221A707B69CB
:1010F00000225A707B697A68C3F802203B681A782C
:101100005B7803F00F031B0213439BB21A467B6903
:10111000DA803B689B785B429BB29AB27B691A810A
:101120003B68DA787B699A723B689A7B7B695A7371
:101130003B68DB7B5B429BB29AB27B69A3F80B20D6
:101140003B685B78C3F30313DBB21A467B699A737F
:10115000BC68BB685B68184603F0B6FD03462046D2
:101160001946FFF79DFA1C37BD4690BD6C0700205D
:1011700090B589B000AFF860B960FA71BB71002317
:101180003B610023FB61254B1B78012B42D108F00A
:10119000DBFF0346FB760C237B61FB7E83F00103C0
:1011A000DBB2002B07D007F110031846796903F072
:1011B00043FDF86101E01A4BFB61FB69002B29D06C
:1011C000FB69CD221A70FB6900225A70FB69FA682C
:1011D000C3F80220FB69FA799A71FB69BA79DA716E
:1011E000FB69BA689A60FB7E83F00103DBB2002BD7
:1011F0000BD03C693B695B68184603F065FD03460C
:1012000020461946FFF74CFA04E07B69F869194655
:1012100008F07CFF2437BD4690BD00BF6C0700205E
:10122000A808002090B589B000AFF860B9607A6076
:1012300000233B610023FB612B4B1B78012B4FD11B
:1012400008F082FF0346FB760E237B61FB7E83F072
:101250000103DBB2002B07D007F1100318467969B0
:1012600003F0EAFCF86101E0204BFB61FB69002B15
:1012700036D0FB69E0221A70FB6900225A70FB69C4
:10128000FA68C3F80220FB69BA68C3F806207B68D5
:101290001A78FB699A727B685A78FB69DA727B6804
:1012A0005B889BB2DAB2FB691A737B681A79FB69B7
:1012B0005A73FB7E83F00103DBB2002B0BD03C6939
:1012C0003B695B68184603F0FFFC0346204619465D
:1012D000FFF7E6F904E07B69F869194608F016FFA4
:1012E0002437BD4690BD00BF6C070020A808002031
:1012F00090B585B000AF00237B600023FB60032323
:10130000BB603B1D1846B96803F096FCF860FB68AB
:10131000002B13D0FB68CA221A70FB6800225A7097
:10132000FB6800229A707C687B685B68184603F053
:10133000CBFC034620461946FFF7B2F91437BD46E9
:1013400090BD00BFF0B589B000AFF8607B600B4680
:10135000FB721346BB720023FB7700233B61002323
:10136000BB613A237B6107F110031846796903F0EA
:1013700063FCB861BB69002B32D0BB69C5221A700F
:10138000BB6900225A70BB69FA68C3F80220BB69C6
:10139000FA7A9A71BB69BA7ADA71BA697B680832EB
:1013A00003F1300411461846D0F800E0466885681D
:1013B000C068C1F800E04E608D60C8601033103224
:1013C000A342EFD11B8813803C693B695B681846D8
:1013D00003F07AFC034620461946FFF761F901E065
:1013E0000123FB77FB7F18462437BD46F0BD00BFC5
:1013F00090B587B000AF0346FB710023FB75002357
:10140000BB6000233B610323FB6007F10803184620
:10141000F96803F011FC38613B69002B14D03B697B
:10142000C6221A703B6900225A703B69FA799A7099
:10143000BC68BB685B68184603F046FC0346204660
:101440001946FFF72DF901E00123FB75FB7D1846D6
:101450001C37BD4690BD00BF90B587B000AF0B46AE
:101460003A600246FA71BB710023FB750023BB6032
:1014700000233B613F23FB6007F108031846F9682E
:1014800003F0DAFB38613B69002B2CD03B69C322A7
:101490001A703B6900225A70BB79072B01D90723C8
:1014A000BB71FB791F2B01D91F23FB71BB795B013A
:1014B000DAB2FB791344DAB23B699A703B69DA1C01
:1014C000FB795B00104639681A4622F0E2FBBC68E3
:1014D000BB685B68184603F0F7FB034620461946D5
:1014E000FFF7DEF801E00123FB75FB7D18461C3792
:1014F000BD4690BD90B587B000AF786039600023DD
:10150000FB750023BB6000233B613B681B790B33F9
:10151000FB6007F108031846F96803F08DFB38619A
:101520003B69002B39D03B69C4221A703B69002209
:101530005A703B681A783B699A703B685A783B69E5
:10154000DA703B697A685A603B689A783B691A722C
:101550003B68DA783B695A723B681A793B699A7240
:101560003B681B79002B0CD03B6903F10B013B68F6
:10157000D3F805203B681B79084611461A4622F02D
:1015800088FBBC68BB685B68184603F09DFB03469C
:1015900020461946FFF784F801E00123FB75FB7D27
:1015A00018461C37BD4690BD90B589B000AF786035
:1015B00039600023FB770023FB600023BB612E4BC7
:1015C0001B78012B52D17B685B7AFB75FB7D0E3358
:1015D0003B6107F10C031846396903F02DFBB86134
:1015E000BB69002B42D0BB69D4221A70BB69FF22B1
:1015F0005A707B681A78BB699A707B68B3F80130BF
:101600009AB2BB69A3F803207B68DA78BB695A7188
:101610007B689B889AB2BB69DA807B68B3F9063035
:101620009AB2BB691A817B681A7ABB699A72BB69E4
:10163000FA7DDA727B689A7ABB691A737B68DA7A08
:10164000BB695A73BB6903F10E02FB7D1046396812
:101650001A4622F01EFBFC68FB685B68184603F024
:1016600033FB034620461946FFF71AF8FB7F18465E
:101670002437BD4690BD00BF6C07002090B58BB0ED
:1016800000AFF860B9601346FB71002387F827307C
:1016900000237B6100233B623D4B1B78012B64D10F
:1016A000FB689B7BFB77FB7F1133BB6107F1140366
:1016B0001846B96903F0C0FA38623B6A002B50D073
:1016C0003B6AE8221A703B6AFF225A70FB7983F06A
:1016D0000103DBB2002B01D0002100E001213A6AB6
:1016E000937861F300039370FB68B3F901309AB209
:1016F0003B6AA3F80320FB68DA783B6A5A71FB68FF
:101700005A683B6AC3F80620FB681A7A3B6A9A72E9
:10171000FB68B3F809309AB23B6AA3F80B20FB6868
:10172000DA7A3B6A5A73FB689B899AB23B6ADA8120
:10173000FB689A7B3B6A1A743B6A03F11102FB7FD8
:101740001046B9681A4622F0A4FA7C697B695B6886
:10175000184603F0B9FA034620461946FEF7A0FFE3
:1017600006E0062387F8273002E0042387F82730B5
:1017700097F82730002B14BF00230123DBB2184653
:101780000EF0FEFD97F8273018462C37BD4690BD69
:101790006C070020B0B588B000AFB9607A603B60DC
:1017A0000346FB7300237B610023FB612723BB619E
:1017B00007F114031846B96903F03EFAF861FB69B2
:1017C000002B33D0FB69E5221A701A4B9A78FB691B
:1017D0005A70FB69FA7B9A70FB69BA680333116827
:1017E00019609188927999809A71FB697A680A33B5
:1017F00012681A60FB693A680E3310685168956880
:10180000D468186059609D60DC6010695169186186
:101810005961127E1A767C697B695B68184603F011
:1018200053FA034620461946FEF73AFF2037BD46D5
:10183000B0BD00BF6C07002080B400AF0C4B1B781C
:101840005A1C0C4B83FB02139911D317CB1AC821D6
:1018500001FB03F3D31ADAB2054B1A70044B1B7861
:101860000133DBB21846BD465DF8047B704700BF0C
:10187000700900201F85EB5190B587B000AF7860EC
:101880000B46FB700023FB750023BB6000233B610C
:10189000184B1B78012B26D1FEF762FF0346FB6035
:1018A000FB68022B07DDFB7807F10802104619469A
:1018B00003F0C2F938613B69002B11D0FB7838691D
:1018C00079681A4622F0E5F9BC68BB685B6818467F
:1018D00003F0FAF9034620461946FEF7E1FE04E05C
:1018E0000623FB7501E00423FB75FB7D18461C37BE
:1018F000BD4690BD6C07002080B582B000AF0346A6
:10190000FB71054B9A78FB79112011461A4603F0BA
:101910004DF80837BD4680BD6C07002090B587B0F4
:1019200000AFF871B9717A717B800023FB750023D9
:10193000BB6000233B610723FB6007F108031846E7
:10194000F96803F079F938613B69002B1ED03B69D7
:1019500033221A703B69FA795A703B69BA799A70E6
:101960003B697A79DA703B697A889A803B6997F8A3
:1019700028209A71BC68BB685B68184603F0A4F91C
:10198000034620461946FEF78BFE01E00623FB7551
:10199000FB7D18461C37BD4690BD00BF80B582B0A8
:1019A00000AF00237B6005F073FE114B7B6078680D
:1019B00000F022F80346FB70FB7883F00103DBB2F2
:1019C000002B12D00B4BD3F836311B78042B05D0EB
:1019D000084BD3F836311B78052B03D1786802F019
:1019E00069F902E0786800F01BFE0837BD4680BD4B
:1019F000720700206C07002080B5A8B002AF7860A5
:101A0000012387F89730002387F896307B681A788F
:101A1000F54B5A707B685A78F34B9A7007F18C0338
:101A20007868194603F0FEF907F1400300221A60B6
:101A3000043300221A60043300221A60043307F1D1
:101A40008C033B64E94B7B647B681B78023BE22B95
:101A500000F2D78501A252F823F000BFF11D00006B
:101A6000032600000326000003260000531E00008A
:101A700003260000032600000326000003260000C2
:101A800003260000032600000326000003260000B2
:101A9000032600008B1E0000032600000326000022
:101AA0000326000003260000032600000326000092
:101AB0000326000003260000032600000326000082
:101AC00003260000A51E00000326000003260000D8
:101AD0000326000003260000032600000326000062
:101AE0000326000003260000032600000326000052
:101AF0000326000003260000032600000326000042
:101B0000032600000326000003260000251F000016
:101B10000326000003260000032600007D1F0000AE
:101B20000326000003260000032600000326000011
:101B3000032600000326000003260000931F000078
:101B4000032600000326000003260000E51F000016
:101B50000326000011200000032600006B20000077
:101B60000326000003260000032600009120000049
:101B700003260000052100000326000003260000C4
:101B8000032600000326000003260000BF1F0000FC
:101B90000326000047210000032600000326000062
:101BA000B12100000326000003260000652200008A
:101BB0000326000003260000F52200000326000093
:101BC00003260000992300000326000003260000DE
:101BD0000326000003260000032600000326000061
:101BE00003260000352400000326000029240000FD
:101BF000032600000B260000032600000326000039
:101C000003260000111E000003260000BD24000072
:101C10000326000003260000032600000326000020
:101C20000326000003260000032600000326000010
:101C30000326000003260000032600000326000000
:101C400003260000032600000326000003260000F0
:101C500003260000032600000326000003260000E0
:101C600003260000032600000326000003260000D0
:101C700003260000032600000326000003260000C0
:101C800003260000032600000326000003260000B0
:101C900003260000032600000326000003260000A0
:101CA0000326000003260000032600000326000090
:101CB0000326000003260000032600000326000080
:101CC0000326000003260000032600000326000070
:101CD0000326000003260000032600000326000060
:101CE0000326000003260000032600000326000050
:101CF0000326000003260000032600000326000040
:101D0000032600000326000003260000032600002F
:101D1000032600000326000003260000032600001F
:101D2000032600000326000003260000032600000F
:101D300003260000032600000326000003260000FF
:101D400003260000032600000326000003260000EF
:101D500003260000032600000326000003260000DF
:101D600003260000032600000326000003260000CF
:101D700003260000032600000326000003260000BF
:101D800003260000032600000326000003260000AF
:101D9000032600000326000003260000032600009F
:101DA000032600000326000003260000F3240000A1
:101DB000032600000D250000032600003125000049
:101DC00003260000032600007925000055250000A9
:101DD00003260000032600000326000081250000E2
:101DE00003260000BD2500006C07002074090020B8
:101DF00010F058F8034687F8963097F89630002B85
:101E000005D097F896301846FEF7B2FEFEE3FDE3E4
:101E10007B689A7807F15B03104619460EF042FF83
:101E2000034687F8963097F85B30002B0AD197F875
:101E30005B3083F00103DBB2002B09D097F89630BA
:101E4000002B05D097F896301846FEF7C5FEDDE367
:101E5000DCE37B685A78A94B9A707B68023318469A
:101E6000002110F0C9F8034687F8963097F89630AD
:101E7000002B09D07B685A7897F8963007201146D6
:101E80001A4602F093FDC1E3C0E37B689A787B6851
:101E9000D3F80330104619460FF03EFC034687F88E
:101EA0009630B3E37B68D3F80230184603F020FE87
:101EB000934B00221A707B68D3F8023023F07F42E4
:101EC0008F4BD1B2002001435970110AC9B20020D2
:101ED00001439970120CD2B200210A43DA70884B88
:101EE0002E225A7107F17C038548194621F052F8D9
:101EF000D7F87E307A68527A1A70B7F88230BB64AD
:101F000007F14003184604F097FA034687F8963025
:101F10007B685A7897F896301D2011461A4602F0D1
:101F200045FD73E37B6899787B68D3F8032007F15C
:101F30002403084611461A4605F056F97B6ABB6031
:101F40003B8DBB817B8DFB81BB8D3B82FB8D7B827F
:101F50003B8EBB827B8EFB82BB8E3B83FB8E7B8367
:101F60003B8FBB837B8FFB8300233B84BB8F7B84B6
:101F700007F10803184602F0AFFD47E35F4B9B787B
:101F80000B22009218460121022216230FF0B0FB0B
:101F90003CE37B68D3F8022007F16A031046194638
:101FA00003F0C4FD034687F896307B685A7897F8AB
:101FB00096303B2011461A4602F0F8FC26E37B6877
:101FC000D3F80230184603F01DFE034687F896301A
:101FD0007B685A7897F896304F2011461A4602F0DF
:101FE000E5FC13E37B68D3F802207B685B7810463E
:101FF000194608F043FB034687F896307B685A7809
:1020000097F896303F2011461A4602F0CFFCFDE2C9
:102010007B689B79002B09D07B68D3F80230184687
:1020200009F0D2FD034687F8963002E0002387F8D6
:10203000963097F89630002B0BD17B68D3F80220AE
:1020400007F16C031046194604F06EFD034687F84D
:1020500096307B68597897F8962007F16C0308460C
:1020600011461A4602F0DAFCD0E27B68D3F802305F
:10207000184604F0E3FD034687F896307B685A78EB
:1020800097F89630432011461A4602F08FFCBDE2C5
:102090007B689B7987F860307B68DB7987F86130F3
:1020A0007B681B7A87F862307B685B7A87F86330DD
:1020B0007B689B7A87F864307B68DB7A87F86530C9
:1020C0007B681B7B87F866307B685B7B87F86730B3
:1020D0007B68D3F8022007F160031046194609F027
:1020E000E7FD034687F896307B685A7897F8963074
:1020F000472011461A4602F059FC87E26C0700207F
:10210000740900207B689B7987F85C307B68B3F8A2
:1021100007309BB2A7F85D307B685B7A87F85F3049
:102120007B68D3F8022007F15C031046194609F0DA
:102130007DFE7B685A7897F89630492011461A46FA
:1021400002F034FC62E2BA4B00221A707B68D3F8CA
:10215000023023F07F42B64BD1B2002001435970C8
:10216000110AC9B2002001439970120CD2B20021A9
:102170000A43DA70AE4B36225A7107F17C03AC4841
:10218000194620F007FFB7F88230BB6407F140031F
:10219000184604F051F9034687F896307B685A7860
:1021A00097F89630512011461A4602F0FFFB2DE2B7
:1021B0009F4B00221A707B68D3F8023023F07F42D5
:1021C0009B4BD1B2002001435970110AC9B20020C3
:1021D00001439970120CD2B200210A43DA70944B79
:1021E00080225A7107F17C039148194620F0D2FEF3
:1021F000D7F87E307A68527A1A70D7F87E307A68CB
:10220000927A5A70D7F87E307A68D27A9A71D7F873
:102210007E307A68127BDA71D7F87E307A68D2F82D
:102220000D20C3F80220D7F87E307A68527C1A72EB
:10223000D7F87E307A68927C5A72B7F88230BB64E5
:1022400007F14003184604F0F7F8034687F8963084
:102250007B685A7897F89630542011461A4602F057
:10226000A5FBD3E1724B00221A707B68D3F80230D1
:1022700023F07F426E4BD1B2002001435970110A06
:10228000C9B2002001439970120CD2B200210A4356
:10229000DA707B685B7AFF2B09D1654B84225A7117
:1022A00007F17C036248194620F074FE0DE0604B94
:1022B00082225A7107F17C035D48194620F06AFEBC
:1022C000D7F87E307A68527A1A70B7F88230BB64D9
:1022D00007F14003184604F0AFF8034687F896303C
:1022E0007B685A7897F89630572011461A4602F0C4
:1022F0005DFB8BE14E4B00221A707B68D3F80230F5
:1023000023F07F424A4BD1B2002001435970110A99
:10231000C9B2002001439970120CD2B200210A43C5
:10232000DA707B685B7AFF2B0ED1414B88225A71A1
:1023300007F17C033E48194620F02CFED7F87E308A
:102340007A68927A1A7012E0394B86225A7107F134
:102350007C033748194620F01DFED7F87E307A6896
:10236000527A1A70D7F87E307A68927A5A70B7F833
:102370008230BB6407F14003184604F05DF8034661
:1023800087F896307B685A7897F896305A2011462D
:102390001A4602F00BFB39E1254B00221A707B68CC
:1023A000D3F8023023F07F42214BD1B20020014309
:1023B0005970110AC9B2002001439970120CD2B2AF
:1023C00000210A43DA707B685B7AFF2B09D1184B36
:1023D0008C225A7107F17C031548194620F0DAFD6A
:1023E0000DE0134B8A225A7107F17C0310481946FD
:1023F00020F0D0FDD7F87E307A68527A1A70B7F89C
:102400008230BB6407F14003184604F015F8034618
:1024100087F896307B685A7897F896305D20114699
:102420001A4602F0C3FAF1E002F08CFBEEE000BFC6
:1024300074090020784B00221A707B68D3F80230B0
:1024400023F07F42744BD1B2002001435970110A2E
:10245000C9B2002001439970120CD2B200210A4384
:10246000DA706D4B4C225A7107F17C036A481946A9
:1024700020F090FDD7F87E307A6892791A70D7F8FC
:102480007E305A1C7B68073310461946052221F01E
:1024900000FCB7F88230BB6407F14003184603F034
:1024A000CBFF034687F896307B685A7897F89630CA
:1024B000652011461A4602F079FAA7E07B68D3F846
:1024C00002207B689B79002B0CBF00230123DBB229
:1024D0001046194604F01AFF034687F896307B68C9
:1024E0005A7897F896306F2011461A4602F05EFA35
:1024F0008CE00A2387F896307B685A7897F89630F4
:10250000D72011461A4602F051FA7FE00A2387F8D5
:10251000963097F89630002B09D07B685A7897F858
:102520009630D92011461A4602F040FA6EE06DE06E
:102530000A2387F8963097F89630002B09D07B68ED
:102540005A7897F89630DB2011461A4602F02EFA98
:102550005CE05BE00A2387F8963097F89630002B12
:1025600009D07B685A7897F89630DF2011461A46D2
:1025700002F01CFA4AE049E00A2387F8963045E069
:102580007B685A78254B9A707B689A787B6803330E
:10259000104619460FF0AEFF034687F8963097F8BD
:1025A0009630002B09D07B685A7897F89630E32054
:1025B00011461A4602F0FAF928E027E07B681B79F9
:1025C000002B02D005F052F905E07B689B78002BC8
:1025D00001D005F05DF87B6899787B68DA7807F1BF
:1025E0004C03084611461A460FF0DAFB034687F8FB
:1025F0009630F96C3A6D7B6D97F89600FFF7CAF844
:1026000004E0002387F8973000E000BF97F8973088
:1026100018469837BD4680BD740900206C0700201D
:1026200090B5BBB002AF7860002387F8DF30124B63
:10263000C7F8D8307B681A78104B5A707B685A7884
:102640000E4B9A7007F1D0037868194602F0EAFB46
:1026500007F15C0300221A60043300221A6004337D
:1026600000221A60043307F1D003FB65044B3B667C
:102670007B681B78043B05E0720700206C07002094
:10268000C4090020E22B01F20A8301A252F823F0D0
:102690001D2A00009F3C00009F3C00009F3C000062
:1026A0009D2A00009F3C0000572C00009F3C00002A
:1026B000992C00009F3C0000C52C00009F3C0000AE
:1026C000CD2C00009F3C0000E92C00009F3C000046
:1026D0004D2D00009F3C0000B92D00009F3C0000E4
:1026E000BB3000009F3C00009F3C00009F3C00006E
:1026F000B93200009F3C0000613100009F3C0000A7
:102700000D3200009F3C0000693300009F3C000038
:10271000DF3300009F3C0000553400009F3C000068
:10272000C93400009F3C0000513500009F3C000070
:102730009F3C00009F3C00004D3600009F3C000085
:10274000292D00009F3C0000A53600009F3C0000A2
:102750009F3C00009F3C00009F3C00009F3C00000D
:102760003B3300009F3C0000BB3600009F3C000054
:102770002F2C00009F3C00000D3700009F3C000004
:10278000393700009F3C0000933700009F3C000059
:102790009F3C00009F3C0000B93700009F3C0000B8
:1027A000253800009F3C00009F3C00009F3C00003B
:1027B0009F3C00009F3C0000E73600009F3C00006B
:1027C000673800009F3C00009F3C0000D9380000A3
:1027D0009F3C00009F3C00008D3900009F3C0000A2
:1027E0009F3C00001D3A00009F3C00009F3C000001
:1027F000C13A00009F3C00009F3C00009F3C00004D
:102800009F3C00009F3C00009F3C00009F3C00005C
:102810005D3B00009F3C0000513B00009F3C0000DE
:102820009F3C00009F3C00009F3C00009F3C00003C
:102830009F3C00009F3C0000E53B00009F3C0000E7
:102840009F3C00009F3C00009F3C00009F3C00001C
:102850009F3C00009F3C00009F3C00009F3C00000C
:102860009F3C00009F3C00009F3C00009F3C0000FC
:102870009F3C00009F3C00009F3C00009F3C0000EC
:102880009F3C00009F3C00009F3C00009F3C0000DC
:102890009F3C00009F3C00009F3C00009F3C0000CC
:1028A0009F3C00009F3C00009F3C00009F3C0000BC
:1028B0009F3C00009F3C00009F3C00009F3C0000AC
:1028C0009F3C00009F3C00009F3C00009F3C00009C
:1028D0009F3C00009F3C00009F3C00009F3C00008C
:1028E0009F3C00009F3C00009F3C00009F3C00007C
:1028F0009F3C00009F3C00009F3C00009F3C00006C
:102900009F3C00009F3C00009F3C00009F3C00005B
:102910009F3C00009F3C00009F3C00009F3C00004B
:102920009F3C00009F3C00009F3C00009F3C00003B
:102930009F3C00009F3C00009F3C00009F3C00002B
:102940009F3C00009F3C00009F3C00009F3C00001B
:102950009F3C00009F3C00009F3C00009F3C00000B
:102960009F3C00009F3C00009F3C00009F3C0000FB
:102970009F3C00009F3C00009F3C00009F3C0000EB
:102980009F3C00009F3C00009F3C00009F3C0000DB
:102990009F3C00009F3C00009F3C00009F3C0000CB
:1029A0009F3C00009F3C00009F3C00009F3C0000BB
:1029B0009F3C00009F3C0000333600009F3C00001D
:1029C0009F3C00009F3C00009F3C00009F3C00009B
:1029D0009F3C00009F3C00009F3C00009F3C00008B
:1029E0009F3C00009F3C00009F3C00009F3C00007B
:1029F0009F3C00009F3C00009F3C00009F3C00006B
:102A00009F3C00009F3C00001B3C00009F3C0000DE
:102A10009F3C00009F3C0000573C0000C04B002240
:102A20001A707B68D3F8023023F07F42BC4BD1B2DE
:102A3000002001435970110AC9B200200143997066
:102A4000120CD2B200210A43DA70B54B48225A71F7
:102A500007F1C003B248194620F09CFAD7F8C230FB
:102A60007A68527A1A70D7F8C2307A68927A5A70B5
:102A7000B7F8C6307B6607F15C03184603F0DCFC50
:102A8000034687F8DF307B685A7897F8DF300520F7
:102A900011461A4601F08AFF01F002B97B68D3F8AB
:102AA0000230C7F880307B689B7987F884307B6878
:102AB000B3F807309BB2A7F885307B68DB68C7F8AE
:102AC0008730002387F88B30FF2387F88C307B68B2
:102AD0005B899BB2A7F88D307B68DB7C87F89030F0
:102AE0007B681B8A9BB2A7F891307B689B7C002B8C
:102AF0000CBF00230123DBB287F893307B681B7D7A
:102B000087F894307B68B3F815309BB2A7F89530FE
:102B10007B68DB7D87F897307B681B7EC3F34003BF
:102B2000DAB297F8983062F3000387F898307B6840
:102B30001B7EC3F38003DAB297F8983062F3410347
:102B400087F898307B681B7EC3F3C003DAB297F82E
:102B5000983062F3820387F898307B681B7EC3F35A
:102B60000013DAB297F8983062F3C30387F898300D
:102B70007B681B7EC3F30003DAB297F8983062F3E8
:102B8000041387F898307B681B7EC3F34013DAB2D6
:102B900097F8983062F3451387F898307B685B7E2E
:102BA00087F899307B689B7E03F01F03DAB297F8B1
:102BB0009A3062F3040387F89A307B68DB7E03F077
:102BC0000303DAB297F89A3062F3461387F89A3023
:102BD0007B681B7F03F00103DAB297F89A3062F347
:102BE000C71387F89A307B685B7F87F89B307B68D8
:102BF0009B7F87F89C307B68B3F81F309BB2A7F8A7
:102C00009D30002387F88F3007F18003184602F0CB
:102C1000C5FB034687F8DF307B685A7897F8DF30CA
:102C2000092011461A4601F0C1FE01F039B87B684F
:102C3000D3F80230184602F0F9FC034687F8DF307B
:102C40007B685A7897F8DF303D2011461A4601F02C
:102C5000ADFE01F025B8022015F040F87B689A78A7
:102C60007B68B3F803309BB2104619460FF0B4FAF4
:102C7000034687F8DF3097F8DF30002B0AD07B68F7
:102C80005A7897F8DF300B2011461A4601F08EFE75
:102C900001F006B801F004B800200FF079F90346FE
:102CA00087F8DF3097F8DF30002B09D097F8DF2066
:102CB00007F1400310461946FEF70CF800F0F0BF8C
:102CC00000F0EEBF0FF026F900F0EABF7B689A78BB
:102CD0007B68D3F80330104619460EF01DFD0346FD
:102CE00087F8DF3000F0DCBF0FF016F8034687F8F6
:102CF000DF30012002F098FA0A4B01221A7097F88F
:102D0000DF30072B0AD07B685A7897F8DF30132022
:102D100011461A4601F04AFE00F0C2BF00F0C0BFE3
:102D2000C40900206C0700200FF010F8034687F854
:102D3000DF3002F0C9FA7B685A7897F8DF3031202B
:102D400011461A4601F032FE00F0AABF654B002280
:102D50001A707B68D3F8023023F07F42614BD1B206
:102D6000002001435970110AC9B200200143997033
:102D7000120CD2B200210A43DA705A4B0A225A715D
:102D800007F1C0035748194620F004F9B7F8C630D8
:102D90007B6607F15C03184603F04EFB034687F899
:102DA000DF307B685A7897F8DF30152011461A46D5
:102DB00001F0FCFD00F074BF0023BB667B685B7A0A
:102DC000002B01D0012300E00023BA6E1343BB6641
:102DD0007B681B7BFF2B01D0022300E00023BA6E2F
:102DE0001343BB667B68DB889BB2002B01D00423B6
:102DF00000E00023BA6E1343BB667B681B7A002B8E
:102E000001D0082300E00023BA6E1343BB667B6841
:102E10005B899BB2002B01D0102300E00023BA6E27
:102E20001343BB667B689B7B012B01D8202300E00A
:102E30000023BA6E1343BB667B68DB7B002B01D09B
:102E4000402300E00023BA6E1343BB667B681B8AF5
:102E50009BB2002B01D0802300E00023BA6E134305
:102E6000BB667B689B7C002B02D04FF4807300E034
:102E70000023BA6E1343BB667B68DB7CC3F300039D
:102E8000DBB2012B02D14FF4007300E00023BA6ED5
:102E90001343BB667B681B7DFF2B02D04FF480631E
:102EA00000E00023BA6E1343BB667B685B7DFF2B9B
:102EB00002D04FF4006300E00023BA6E1343BB66F8
:102EC0007B689B7DFF2B02D04FF4805300E00023F2
:102ED000BA6E1343BB667B68DB7D012B04D84FF4CD
:102EE000005302E0C40900200023BA6E1343BB66FE
:102EF0007B685B7A87F86C307B681B7B87F86D306A
:102F00007B68DB889BB2A7F86E307B685B7B87F8B9
:102F100070307B681B7A87F871307B685B899BB265
:102F2000A7F872307B689B7B87F874307B68DB7B0B
:102F300087F875307B681B8A9BB2A7F876307B6870
:102F40009B7C87F878307B68DB7CC3F34003DAB284
:102F500097F8793062F3041387F879307B68DB7C6B
:102F6000C3F38003DAB297F8793062F3000387F88D
:102F700079307B68DB7CC3F3C003DAB297F8793031
:102F800062F3410387F879307B68DB7CC3F300137D
:102F9000DAB297F8793062F3820387F879307B6888
:102FA000DB7CC3F34013DAB297F8793062F3C303E2
:102FB00087F879307B68DB7CC3F38013DAB297F84B
:102FC000793062F3451387F879307B681B7D87F889
:102FD0007A307B685B7D03F01F03DAB297F87B30B1
:102FE00062F3040387F87B307B689B7D03F0030367
:102FF000DAB297F87B3062F3461387F87B307B6850
:10300000DB7D03F00103DAB297F87B3062F3C7137C
:1030100087F87B307B681B7E002B02D04FF4804307
:1030200000E00023BA6E1343BB667B685B7E002B17
:1030300002D04FF4004300E00023BA6E1343BB6696
:103040007B685B8B9BB2002B02D04FF4803300E097
:103050000023BA6E1343BB667B681B7E87F87C3007
:103060007B685B7E87F87D307B685B8B9BB2A7F8C3
:103070007E307B68D3F80210BB6E07F16C02084605
:1030800011461A4602F02EFB7B68D3F802007B68DB
:103090005B7807F16C0107F1680202F09FFC0346C0
:1030A00087F8DF307B685A7897F8DF3017201146B1
:1030B0001A4601F07BFC00F0F3BDAA4B00221A7007
:1030C0007B68D3F8023023F07F42A64BD1B20020B8
:1030D00001435970110AC9B2002001439970120CC2
:1030E000D2B200210A43DA709E4B0C225A7107F1CA
:1030F000C0039C4819461FF04DFFD7F8C2307A68CC
:10310000D28892B21A80D7F8C2307A68127A9A704E
:10311000D7F8C2307A68D2F80920C3F80320D7F86C
:10312000C2307A68527BDA71D7F8C2307A68D2F846
:103130000E209A60B7F8C6307B6607F15C0318462C
:1031400003F07AF9034687F8DF307B685A7897F8FE
:10315000DF30192011461A4601F028FC00F0A0BD0E
:103160007B68D3F80230002B3AD07E4B00221A70D5
:103170007B68D3F8023023F07F427A4BD1B2002033
:1031800001435970110AC9B2002001439970120C11
:10319000D2B200210A43DA70724B0E225A7107F143
:1031A000C003704819461FF0F5FED7F8C2307A68A0
:1031B00092791A70D7F8C2305A1C7B6807331046D0
:1031C0001946322220F065FDB7F8C6307B6607F15C
:1031D0005C03184603F030F9034687F8DF300AE055
:1031E0007B689A797B68073310461946FDF702F829
:1031F000034687F8DF307B685A7897F8DF301F2066
:1032000011461A4601F0D2FB00F04ABD7B68D3F8A4
:103210000230002B3AD0534B00221A707B68D3F84F
:10322000023023F07F424F4BD1B20020014359704E
:10323000110AC9B2002001439970120CD2B20021C8
:103240000A43DA70474B10225A7107F1C003454810
:1032500019461FF09FFED7F8C2307A6892791A702B
:10326000D7F8C2305A1C7B68073310461946322201
:1032700020F00FFDB7F8C6307B6607F15C031846F7
:1032800003F0DAF8034687F8DF300AE07B689A79C2
:103290007B68073310461946FDF704F8034687F8A4
:1032A000DF307B685A7897F8DF30212011461A46C4
:1032B00001F07CFB00F0F4BC7B68D3F802301846C8
:1032C00002F016FC274B00221A707B68D3F80230FC
:1032D00023F07F42234BD1B2002001435970110AE1
:1032E000C9B2002001439970120CD2B200210A43E6
:1032F000DA701C4B2E225A7107F1C0031948194687
:103300001FF048FED7F8C2307A68527A1A70B7F8C0
:10331000C6307B6607F15C03184603F08DF8034660
:1033200087F8DF307B685A7897F8DF301D20114628
:103330001A4601F03BFB00F0B3BC7B68D3F80230C7
:10334000184602F0D5FB034687F8DF307B685A78D1
:1033500097F8DF30392011461A4601F027FB00F0BC
:103360009FBC00BFC4090020B74B00221A707B68C5
:10337000D3F8023023F07F42B34BD1B20020014397
:103380005970110AC9B2002001439970120CD2B2CF
:1033900000210A43DA70AC4B22225A7107F1C003B4
:1033A000A94819461FF0F6FDD7F8C2307A68527A5C
:1033B0001A70B7F8C6307B6607F15C03184603F055
:1033C0003BF8034687F8DF307B685A7897F8DF30A0
:1033D000232011461A4601F0E9FA00F061BC9A4B2D
:1033E00000221A707B68D3F8023023F07F42964B9C
:1033F000D1B2002001435970110AC9B20020014323
:103400009970120CD2B200210A43DA708E4B262238
:103410005A7107F1C0038C4819461FF0BBFDD7F85D
:10342000C2307A68527A1A70B7F8C6307B6607F1F4
:103430005C03184603F000F8034687F8DF307B682A
:103440005A7897F8DF30252011461A4601F0AEFA77
:1034500000F026BC7C4B00221A707B68D3F8023047
:1034600023F07F42784BD1B2002001435970110AFA
:10347000C9B2002001439970120CD2B200210A4354
:10348000DA70714B2A225A7107F1C0036E4819464F
:103490001FF080FDD7F8C2307A68527A1A70B7F8F8
:1034A000C6307B6607F15C03184602F0C5FF034691
:1034B00087F8DF307B685A7897F8DF30272011468D
:1034C0001A4601F073FAEBE35F4B00221A707B6837
:1034D000D3F8023023F07F425B4BD1B2002001438E
:1034E0005970110AC9B2002001439970120CD2B26E
:1034F00000210A43DA70544B32225A7107F1C0039B
:10350000514819461FF046FDD7F8C2307A68D27A82
:103510009A70D7F8C2307A68927A5A70D7F8C23067
:103520007A68527A1A70B7F8C6307B6607F15C0386
:10353000184602F081FF034687F8DF307B685A782F
:1035400097F8DF30292011461A4601F02FFAA7E339
:103550007B681B7A002B03D1022387F8DF3002E05F
:10356000002387F8DF3097F8DF30002B57D1364B38
:1035700000221A707B68D3F8023023F07F42324B6E
:10358000D1B2002001435970110AC9B20020014391
:103590009970120CD2B200210A43DA702A4B12221F
:1035A0005A7107F1C003284819461FF0F3FCD7F8F9
:1035B000C2307A6892791A70D7F8C2307A68D279B4
:1035C0005A70D7F8C2307A68127A9A707B681B7A80
:1035D0001A46B7F8C630C3F14F039A421CD2D7F847
:1035E000C230D91C7B6803F109027B681B7A08464C
:1035F00011461A4620F04DFBB7F8C6301A467B68D4
:103600001B7A13447B6607F15C03184602F014FF33
:10361000034687F8DF3002E00C2387F8DF307B6851
:103620005A7897F8DF302B2011461A4601F0BEF980
:1036300036E37B685A7897F8DF30CF2011461A4678
:1036400001F0B4F92CE300BFC40900207B6899782D
:103650007B68D3F8032007F12403084611461A4675
:1036600003F0C2FD7B6ABB603B8DBB817B8DFB8120
:10367000BB8D3B82FB8D7B823B8EBB827B8EFB8234
:10368000BB8E3B83FB8E7B833B8FBB837B8FFB831C
:1036900000233B84BB8F7B8407F10803184601F0AD
:1036A0001BFAFDE28A4B9B780B22009218460121FF
:1036B000022216230EF01CF8F2E27B68D3F80220F7
:1036C00007F1AE031046194602F030FA034687F8B8
:1036D000DF307B685A7897F8DF303B2011461A4676
:1036E00001F064F9DCE27B68D3F80230184602F09E
:1036F00089FA034687F8DF307B685A7897F8DF301D
:103700004F2011461A4601F051F9C9E27B68D3F8FF
:1037100002207B685B781046194606F0AFFF03462F
:1037200087F8DF307B685A7897F8DF303F20114602
:103730001A4601F03BF9B3E27B689B79002B09D074
:103740007B68D3F80230184608F03EFA034687F843
:10375000DF3002E0002387F8DF3097F8DF30002BFE
:103760000BD17B68D3F8022007F1B003104619464D
:1037700003F0DAF9034687F8DF307B68597897F869
:10378000DF2007F1B003084611461A4601F046F95A
:1037900086E27B68D3F80230184603F04FFA0346FE
:1037A00087F8DF307B685A7897F8DF30432011467E
:1037B0001A4601F0FBF873E27B689B7987F8A43026
:1037C0007B68DB7987F8A5307B681B7A87F8A630A1
:1037D0007B685B7A87F8A7307B689B7A87F8A8308C
:1037E0007B68DB7A87F8A9307B681B7B87F8AA3077
:1037F0007B685B7B87F8AB307B68D3F8022007F1EE
:10380000A4031046194608F053FA034687F8DF3040
:103810007B685A7897F8DF30472011461A4601F046
:10382000C5F83DE27B689B7987F8A0307B68B3F8E8
:1038300007309BB2A7F8A1307B685B7A87F8A3308A
:103840007B68D3F8022007F1A0031046194608F060
:10385000EDFA7B685A7897F8DF30492011461A460E
:1038600001F0A4F81CE21B4B00221A707B68D3F80D
:10387000023023F07F42174BD1B200200143597030
:10388000110AC9B2002001439970120CD2B2002172
:103890000A43DA700F4B36225A7107F1C0030D4804
:1038A00019461FF077FBB7F8C6307B6607F15C035B
:1038B000184602F0C1FD034687F8DF307B685A786E
:1038C00097F8DF30512011461A4601F06FF8E7E112
:1038D0006C070020C40900209F4B00221A707B68EF
:1038E000D3F8023023F07F429B4BD1B2002001433A
:1038F0005970110AC9B2002001439970120CD2B25A
:1039000000210A43DA70944B80225A7107F1C003F8
:10391000914819461FF03EFBD7F8C2307A68527AB8
:103920001A70D7F8C2307A68927A5A70D7F8C230D3
:103930007A68D27A9A71D7F8C2307A68127BDA71D3
:10394000D7F8C2307A68D2F80D20C3F80220D7F831
:10395000C2307A68527C1A72D7F8C2307A68927C88
:103960005A72B7F8C6307B6607F15C03184602F05E
:1039700063FD034687F8DF307B685A7897F8DF30BD
:10398000542011461A4601F011F889E1724B0022C9
:103990001A707B68D3F8023023F07F426E4BD1B2AD
:1039A000002001435970110AC9B2002001439970E7
:1039B000120CD2B200210A43DA707B685B7AFF2BCB
:1039C00009D1654B84225A7107F1C0036248194638
:1039D0001FF0E0FA0DE0604B82225A7107F1C0033C
:1039E0005D4819461FF0D6FAD7F8C2307A68527A85
:1039F0001A70B7F8C6307B6607F15C03184602F010
:103A00001BFD034687F8DF307B685A7897F8DF3074
:103A1000572011461A4600F0C9FF41E14E4B0022E3
:103A20001A707B68D3F8023023F07F424A4BD1B240
:103A3000002001435970110AC9B200200143997056
:103A4000120CD2B200210A43DA707B685B7AFF2B3A
:103A50000ED1414B88225A7107F1C0033E481946E6
:103A60001FF098FAD7F8C2307A68927A1A7012E08A
:103A7000394B86225A7107F1C003374819461FF0A7
:103A800089FAD7F8C2307A68527A1A70D7F8C230F9
:103A90007A68927A5A70B7F8C6307B6607F15C0391
:103AA000184602F0C9FC034687F8DF307B685A7875
:103AB00097F8DF305A2011461A4600F077FFEFE002
:103AC000254B00221A707B68D3F8023023F07F4226
:103AD000214BD1B2002001435970110AC9B2002014
:103AE00001439970120CD2B200210A43DA707B684C
:103AF0005B7AFF2B09D1184B8C225A7107F1C00356
:103B0000154819461FF046FA0DE0134B8A225A71E8
:103B100007F1C003104819461FF03CFAD7F8C2302D
:103B20007A68527A1A70B7F8C6307B6607F15C0380
:103B3000184602F081FC034687F8DF307B685A782C
:103B400097F8DF305D2011461A4600F02FFFA7E0FE
:103B500000F0F8FFA4E000BFC4090020524B00228F
:103B60001A707B68D3F8023023F07F424E4BD1B2FB
:103B7000002001435970110AC9B200200143997015
:103B8000120CD2B200210A43DA70474B4C225A7110
:103B900007F1C003444819461FF0FCF9D7F8C230BA
:103BA0007A6892791A70D7F8C2305A1C7B6807334A
:103BB00010461946052220F06CF8B7F8C6307B662F
:103BC00007F15C03184602F037FC034687F8DF3044
:103BD0007B685A7897F8DF30652011461A4600F066
:103BE000E5FE5DE07B68D3F802207B689B79002BC3
:103BF0000CBF00230123DBB21046194603F086FBFD
:103C0000034687F8DF307B685A7897F8DF306F20FB
:103C100011461A4600F0CAFE42E07B685A78234BF0
:103C20009A707B689A787B680333104619460EF0C9
:103C300061FC034687F8DF3097F8DF30002B09D0AE
:103C40007B685A7897F8DF30E32011461A4600F077
:103C5000ADFE25E024E0D7F8D8309878D7F8D830F2
:103C6000B3F8033099B2D7F8D8309A1DD7F8D830C6
:103C70005B790F4C00940EF091FB034687F8DF3020
:103C800097F8DF30002B09D07B685A7897F8DF303F
:103C9000E72011461A4600F089FE01E000E000BF6F
:103CA000E437BD4690BD00BFC40900206C0700206A
:103CB000E94B000080B5AAB002AF7860002387F816
:103CC0009F30124BC7F898307B681A78104B5A70A7
:103CD0007B685A780E4B9A7007F190037868194602
:103CE00001F0A0F807F1540300221A600433002207
:103CF0001A60043300221A60043307F190037B65D5
:103D0000044BBB657B681B78043B05E07207002011
:103D10006C070020140A0020E22B00F23F8601A26B
:103D200052F823F0B14000009D4900009D49000079
:103D30009D490000C74000009D490000F34000007D
:103D40009D490000094100009D4900001F410000FD
:103D50009D490000354100009D490000514100008F
:103D60009D4900007D4100009D49000093410000F5
:103D70009D490000A74100009D4900009D490000A9
:103D80009D490000074200009D490000BB41000022
:103D90009D490000CF4100009D4900009B4200006A
:103DA0009D490000AF4200009D490000C342000051
:103DB0009D490000D74200009D4900009D49000038
:103DC0009D490000E34100009D490000634300005D
:103DD0009D490000674100009D490000BD4300006F
:103DE0009D4900009D4900009D4900009D4900003B
:103DF0009D490000874200009D490000D343000018
:103E00009D490000DD4000009D4900002544000060
:103E10009D490000514400009D490000AB44000052
:103E20009D4900009D4900009D490000D9440000C3
:103E30009D490000454500009D4900009D49000046
:103E40009D4900009D4900009D490000FF4300007E
:103E50009D490000874500009D4900009D490000E4
:103E6000F14500009D4900009D490000A546000065
:103E70009D4900009D490000354700009D49000014
:103E80009D490000D94700009D4900009D49000060
:103E90009D4900009D4900009D4900009D4900008A
:103EA0009D490000754800009D49000069480000D8
:103EB0009D4900009D4900009D4900009D4900006A
:103EC0009D4900009D4900009D490000FD480000FB
:103ED0009D4900009D4900009D4900009D4900004A
:103EE0009D4900009D4900009D4900009D4900003A
:103EF0009D4900009D4900009D4900009D4900002A
:103F00009D4900009D4900009D4900009D49000019
:103F10009D4900009D4900009D4900009D49000009
:103F20009D4900009D4900009D4900009D490000F9
:103F30009D4900009D4900009D4900009D490000E9
:103F40009D4900009D4900009D4900009D490000D9
:103F50009D4900009D4900009D4900009D490000C9
:103F60009D4900009D4900009D4900009D490000B9
:103F70009D4900009D4900009D4900009D490000A9
:103F80009D4900009D4900009D4900009D49000099
:103F90009D4900009D4900009D4900009D49000089
:103FA0009D4900009D4900009D4900009D49000079
:103FB0009D4900009D4900009D4900009D49000069
:103FC0009D4900009D4900009D4900009D49000059
:103FD0009D4900009D4900009D4900009D49000049
:103FE0009D4900009D4900009D4900009D49000039
:103FF0009D4900009D4900009D4900009D49000029
:104000009D4900009D4900009D4900009D49000018
:104010009D4900009D4900009D4900009D49000008
:104020009D4900009D4900009D4900009D490000F8
:104030009D4900009D4900009D4900009D490000E8
:104040009D4900009D4900009D490000EB42000091
:104050009D4900009D4900009D4900009D490000C8
:104060009D4900009D4900009D4900009D490000B8
:104070009D4900009D4900009D4900009D490000A8
:104080009D4900009D4900009D4900009D49000098
:104090009D4900009D4900009D49000033490000F2
:1040A0009D4900009D4900009D4900006F490000A6
:1040B0007B685A7897F89F30052011461A4600F021
:1040C00075FC00F06CBC7B685A7897F89F3009202B
:1040D00011461A4600F06AFC00F061BC7B685A7811
:1040E00097F89F303D2011461A4600F05FFC00F023
:1040F00056BC7B685A7897F89F300B2011461A46B9
:1041000000F054FC00F04BBC7B685A7897F89F3065
:104110000D2011461A4600F049FC00F040BC07F1A2
:10412000480207F14403002011461A46FCF788FDB7
:1041300000F035BC7B689A787B68D3F80330104672
:1041400019460DF0E9FA034687F89F3000F027BCC6
:104150007B685A7897F89F30132011461A4600F072
:1041600025FC00F01CBC7B685A7897F89F30312002
:1041700011461A4600F01AFC00F011BC7B685A7810
:1041800097F89F30152011461A4600F00FFC00F0FA
:1041900006BC7B685A7897F89F30172011461A465C
:1041A00000F004FCFBE37B685A7897F89F301920F5
:1041B00011461A4600F0FAFBF1E37B685A7897F84B
:1041C0009F301F2011461A4600F0F0FBE7E37B68A2
:1041D0005A7897F89F30212011461A4600F0E6FBE6
:1041E000DDE37B689A797B6807330020002117F0B4
:1041F0001FF97B685A7897F89F302D2011461A4690
:1042000000F0D4FBCBE37B68D3F80230184601F012
:104210006FFCAF4B00221A707B68D3F8023023F09A
:104220007F42AB4BD1B2002001435970110AC9B291
:10423000002001439970120CD2B200210A43DA70B7
:10424000A34B2E225A7107F18003A14819461EF094
:10425000A1FED7F882307A68527A1A70B7F88630A1
:10426000FB6507F15403184602F0E6F8034687F8A9
:104270009F307B685A7897F89F301D2011461A4668
:1042800000F094FB8BE37B685A7897F89F303920D5
:1042900011461A4600F08AFB81E37B685A7897F84A
:1042A0009F30232011461A4600F080FB77E37B689D
:1042B0005A7897F89F30252011461A4600F076FB71
:1042C0006DE37B685A7897F89F30272011461A468D
:1042D00000F06CFB63E37B685A7897F89F302920E5
:1042E00011461A4600F062FB59E3794B00221A701E
:1042F0007B68D3F8023023F07F42754BD1B20020A7
:1043000001435970110AC9B2002001439970120C7F
:10431000D2B200210A43DA706D4B38225A7107F18C
:1043200080036B4819461EF035FED7F882307A6854
:10433000B2F9062092B21A80B7F88630FB6507F111
:104340005403184602F078F8034687F89F307B68DC
:104350005A7897F89F30CF2011461A4600F026FB76
:104360001DE37B6899787B68D3F8032007F1280365
:10437000084611461A4602F037FFBB6AFB60BB8D48
:104380003B82FB8D7B823B8EBB827B8EFB82BB8E16
:104390003B83FB8E7B833B8FBB837B8FFB83BB8FFE
:1043A0003B84FB8F7B840023BB84B7F84030FB84C5
:1043B00007F10C03184600F08FFBF0E2454B9B78A9
:1043C0000B22009218460121022216230DF090F9CB
:1043D000E5E27B68D3F8022007F16E031046194628
:1043E00001F0A4FB034687F89F307B685A7897F862
:1043F0009F303B2011461A4600F0D8FACFE27B6886
:10440000D3F80230184601F0FDFB034687F89F30D1
:104410007B685A7897F89F304F2011461A4600F073
:10442000C5FABCE27B68D3F802207B685B78104653
:10443000194606F023F9034687F89F307B685A78BF
:1044400097F89F303F2011461A4600F0AFFAA6E2D7
:104450007B689B79002B09D07B68D3F80230184623
:1044600007F0B2FB034687F89F3002E0002387F88D
:104470009F3097F89F30002B0BD17B68D3F8022038
:1044800007F170031046194602F04EFB034687F809
:104490009F307B68597897F89F2007F17003084692
:1044A00011461A4600F0BAFA79E27B68D3F8023076
:1044B000184602F0C3FB034687F89F307B685A78A2
:1044C00097F89F30432011461A4600F06FFA66E2D3
:1044D000140A00206C0700207B689B7987F8643001
:1044E0007B68DB7987F865307B681B7A87F86630F4
:1044F0007B685B7A87F867307B689B7A87F86830DF
:104500007B68DB7A87F869307B681B7B87F86A30C9
:104510007B685B7B87F86B307B68D3F8022007F100
:1045200064031046194607F0C3FB034687F89F3023
:104530007B685A7897F89F30472011461A4600F05A
:1045400035FA2CE27B689B7987F860307B68B3F89A
:1045500007309BB2A7F861307B685B7A87F86330DD
:104560007B68D3F8022007F160031046194607F074
:104570005DFC7B685A7897F89F30492011461A46AF
:1045800000F014FA0BE2BA4B00221A707B68D3F8E1
:10459000023023F07F42B64BD1B200200143597064
:1045A000110AC9B2002001439970120CD2B2002145
:1045B0000A43DA70AE4B36225A7107F18003AC48D9
:1045C00019461EF0E7FCB7F88630FB6507F1540387
:1045D000184601F031FF034687F89F307B685A7810
:1045E00097F89F30512011461A4600F0DFF9D6E1C6
:1045F0009F4B00221A707B68D3F8023023F07F4271
:104600009B4BD1B2002001435970110AC9B200205E
:1046100001439970120CD2B200210A43DA70944B14
:1046200080225A7107F18003914819461EF0B2FCAE
:10463000D7F882307A68527A1A70D7F882307A685E
:10464000927A5A70D7F882307A68D27A9A71D7F80B
:1046500082307A68127BDA71D7F882307A68D2F8C1
:104660000D20C3F80220D7F882307A68527C1A7283
:10467000D7F882307A68927C5A72B7F88630FB6538
:1046800007F15403184601F0D7FE034687F89F3020
:104690007B685A7897F89F30542011461A4600F0EC
:1046A00085F97CE1724B00221A707B68D3F80230E6
:1046B00023F07F426E4BD1B2002001435970110AA2
:1046C000C9B2002001439970120CD2B200210A43F2
:1046D000DA707B685B7AFF2B09D1654B84225A71B3
:1046E00007F18003624819461EF054FC0DE0604B50
:1046F00082225A7107F180035D4819461EF04AFC78
:10470000D7F882307A68527A1A70B7F88630FB652B
:1047100007F15403184601F08FFE034687F89F30D7
:104720007B685A7897F89F30572011461A4600F058
:104730003DF934E14E4B00221A707B68D3F8023009
:1047400023F07F424A4BD1B2002001435970110A35
:10475000C9B2002001439970120CD2B200210A4361
:10476000DA707B685B7AFF2B0ED1414B88225A713D
:1047700007F180033E4819461EF00CFCD7F8823042
:104780007A68927A1A7012E0394B86225A7107F1D0
:104790008003374819461EF0FDFBD7F882307A684F
:1047A000527A1A70D7F882307A68927A5A70B7F8CB
:1047B0008630FB6507F15403184601F03DFE0346C1
:1047C00087F89F307B685A7897F89F305A201146B7
:1047D0001A4600F0EBF8E2E0254B00221A707B68E5
:1047E000D3F8023023F07F42214BD1B200200143A5
:1047F0005970110AC9B2002001439970120CD2B24B
:1048000000210A43DA707B685B7AFF2B09D1184BD1
:104810008C225A7107F18003154819461EF0BAFB25
:104820000DE0134B8A225A7107F180031048194694
:104830001EF0B0FBD7F882307A68527A1A70B7F857
:104840008630FB6507F15403184601F0F5FD034679
:1048500087F89F307B685A7897F89F305D20114623
:104860001A4600F0A3F89AE000F06CF997E000BF58
:10487000140A00204B4B00221A707B68D3F80230D8
:1048800023F07F42474BD1B2002001435970110AF7
:10489000C9B2002001439970120CD2B200210A4320
:1048A000DA70404B4C225A7107F180033D4819469B
:1048B0001EF070FBD7F882307A6892791A70D7F8B8
:1048C00082305A1C7B6807331046194605221FF0B8
:1048D000E0F9B7F88630FB6507F15403184601F09C
:1048E000ABFD034687F89F307B685A7897F89F3076
:1048F000652011461A4600F059F850E07B68D3F85D
:1049000002207B689B79002B0CBF00230123DBB2C4
:104910001046194602F0FAFC034687F89F307B6880
:104920005A7897F89F306F2011461A4600F03EF8EB
:1049300035E07B685A781C4B9A707B689A787B6864
:104940000333104619460DF0D5FD034687F89F3016
:1049500097F89F30002B09D07B685A7897F89F30E2
:10496000E32011461A4600F021F818E017E0D7F8C6
:1049700098305A79D7F8983006331046194616F011
:1049800077FD034687F89F307B685A7897F89F3009
:10499000E72011461A4600F009F800E000BFA037F2
:1049A000BD4680BD140A00206C07002090B587B07A
:1049B00000AF13460246FA710A46BA717B710023B2
:1049C000FB6000237B6103233B6107F10C03184666
:1049D000396900F031F978617B69002B13D07B696C
:1049E000FA791A707B69BA795A707B697A799A7008
:1049F000FC68FB685B68184600F066F903462046D1
:104A00001946FBF74DFE044BFF229A70024BE92238
:104A10005A701C37BD4690BD6C07002090B587B01A
:104A200000AF0B463A600246FA71BB710023FB608F
:104A300000237B61274B1B78012B48D111233B615D
:104A400007F10C031846396900F0F6F878617B69C4
:104A5000002B3CD07B6941221A707B69FA795A702D
:104A60007B69BA799A703B681A787B69DA703B681F
:104A70005A787B691A713B689A787B695A713B68EE
:104A8000DA787B699A713B681A797B69DA713B68DD
:104A9000D3F805207B699A603B685A7A7B691A7360
:104AA0007B693A680D330A3212881A807B693A684A
:104AB0000F330C3212881A80FC68FB685B6818465A
:104AC00000F002F9034620461946FBF7E9FD1C37C2
:104AD000BD4690BD6C07002090B587B000AF7860F0
:104AE0000023FB6000237B61154B1B78012B24D135
:104AF0001E233B6107F10C031846396900F09CF84E
:104B000078617B69002B18D07B692F221A700C4BBF
:104B10009A787B695A707B690233184679681C223F
:104B20001FF0B7F8FC68FB685B68184600F0CCF82B
:104B3000034620461946FBF7B3FD1C37BD4690BD22
:104B40006C07002090B585B000AF00237B60002388
:104B5000FB60244B1B78012B40D10E23BB603B1D17
:104B60001846B96800F068F8F860FB68002B35D08B
:104B7000FB6867221A701B4B9A78FB685A70FB68B7
:104B800005229A70FB68002242F01E02DA700022B1
:104B90001A71FB680A225A71FB68002242F0640213
:104BA0009A710022DA7100221A7200225A72FB688E
:104BB00001229A72FB680322DA72FB6803221A73DD
:104BC000FB6828225A737C687B685B68184600F093
:104BD0007BF8034620461946FBF762FD1437BD46B5
:104BE00090BD00BF6C07002080B584B000AF0346C5
:104BF000FB710023FB73FB79012B06D0022B07D03E
:104C0000002B08D10023FB7308E00123FB7305E0B0
:104C10000623FB7302E00123FB7300BF054B9A7868
:104C2000FB7BE72011461A46FFF7C0FE1037BD4652
:104C300080BD00BF6C07002080B584B000AF7860F5
:104C400039600023FB603B68184600F04DF80346CE
:104C5000BB60BB68FE2B15DC3B68DBB21846FBF77C
:104C6000F9FC02467B681A607B681B68002B09D040
:104C70007B681B685A683B689BB21046194600F077
:104C800007F8F860FB6818461037BD4680BD00BFC6
:104C900080B483B000AF78600B467B807B6868226D
:104CA0001A707B6801337A88D2B21A707B8802331B
:104CB0007A68134416221A707B68023318460C3740
:104CC000BD465DF8047B704780B483B000AF786068
:104CD0007B6801331B780333DBB218460C37BD46C3
:104CE0005DF8047B704700BF80B483B000AF78608C
:104CF0007B68033318460C37BD465DF8047B70476C
:104D000080B588B000AFF860B9601346FB8000231F
:104D1000FB770023FB750023BB6113E0BB69BA6816
:104D200013441B78DBB25BB2F868194600F014F844
:104D30000346FB75FB7D002B01D00123FB77BB698C
:104D40000133BB61FA88BB699A42E7DCFB7F1846F6
:104D50002037BD4680BD00BF80B584B000AF78600D
:104D60000B46FB700023FB737B68DB78032B53D867
:104D700001A252F823F000BF894D00009B4D0000B6
:104D8000C54D0000F34D000097F90330682B03D1A7
:104D90007B680122DA7040E03FE0FA787B681A71A4
:104DA0007B6800225A717B680633184600214FF455
:104DB00096721EF077FF01200BF0E2FA7B68022268
:104DC000DA702AE07B685B79FA7879680B449A712B
:104DD0007B685B790133DAB27B685A717B685A79F8
:104DE0007B681B799A4203D37B680322DA7014E054
:104DF00013E097F90330162B0AD17B68D3F83231D0
:104E0000002B05D07B68D3F8323198470123FB7320
:104E10007B680022DA7000E000BFFB7B1846103789
:104E2000BD4680BD80B483B000AF786039607B68D8
:104E3000D3F802203B681A607B689A793B681A7144
:104E40007B68B3F807309AB23B68A3F805207B680B
:104E50005A783B68DA710C37BD465DF8047B7047C1
:104E600080B582B000AF00237B609B4B00221A719B
:104E7000994B01225A7203F023FE03F009FF03F05D
:104E800013FF0246944B1A60944B954A1A60934B59
:104E90001E229A80914B0A22DA80904B914A9A60A6
:104EA0008E4B914ADA608D4B64221A828F4B904A66
:104EB0001A608E4B8F4A5A608F4B904A1A608E4B05
:104EC00001229A808C4B0322DA808B4B8C4A9A60A9
:104ED000894B8C4ADA60884B03221A828A4B8B4AB0
:104EE0001A60894B8A4A5A6003F0C4FB894804F06F
:104EF00013F805F07DFA08F043F800237B600CE01E
:104F000079497A6813465B0013445B019B1A0B4492
:104F100000221A707B6801337B607B68632BEFDDB6
:104F200000237B607CE06E4A7B68322101FB03F347
:104F3000134400221A706A4A7B68322101FB03F392
:104F400013440C3300221A8000225A80644A7B6882
:104F5000322101FB03F3134403F1180213786FF3BA
:104F6000000313705E4A7B68322101FB03F3134494
:104F700003F11802137843F002031370584A7B6858
:104F8000322101FB03F3134403F11802137843F0B9
:104F900004031370524A7B68322101FB03F313446C
:104FA00003F11802137843F0080313704C4A7B682E
:104FB000322101FB03F3134403F1180213786FF35A
:104FC00004131370464A7B68322101FB03F3134438
:104FD00010334FF0FF325A704FF0FF325A804FF0CB
:104FE000FF321A713E4A7B68322101FB03F31344FE
:104FF0001033FF22DA713A4A7B68322101FB03F356
:1050000013441833FF225A70354A7B68322101FB62
:1050100003F313441033FF225A717B6801337B6022
:105020007B681D2B7FF77FAF2E4B00221A80002359
:105030007B604AE033497A6813465B0013445B01A6
:105040009B1A0B4400221A707B68DA00324BD1188D
:105050002C487A6813465B0013445B019B1A034497
:105060005833C3F8031027497A6813465B0013448A
:105070005B019B1A0B445833D3F8033000221A709B
:1050800020497A6813465B0013445B019B1A0B446A
:105090005833D3F803304FF0FF321A714FF0FF321C
:1050A0005A7118497A6813465B0013445B019B1AD6
:1050B0000B445833D3F803304FF0FF329A714FF05E
:1050C000FF32DA717B6801337B607B68022BB1DDD4
:1050D00000237B6089E000BF640A0020740A00207E
:1050E00014590020700A0020F83300209C0A002088
:1050F000557A0000C1640000880A00202860002062
:10510000720A0020085F0020A40A0020857B0000AE
:10511000657B00006D0A0020F05E0020384A7B6845
:10512000322101FB03F3134400221A70344A7B68D6
:10513000322101FB03F313444FF0FF325A704FF05A
:10514000FF325A804FF0FF321A712D4A7B683221AC
:1051500001FB03F313440C3300221A8000225A800F
:10516000274A7B68322101FB03F31344FE225A7164
:10517000234A7B68322101FB03F313444FF6FF728D
:10518000DA801F4A7B68322101FB03F3134410339A
:1051900000221A701A4A7B68322101FB03F3134480
:1051A000103300225A70164A7B68322101FB03F348
:1051B0001344103300229A70114A7B68322101FB9C
:1051C00003F3134410330022DA7000229A80002285
:1051D0009A710B4A7B68322101FB03F313441833A5
:1051E00003225A707B6801337B607B68002B95DD5E
:1051F000044B00221A8015F081F80837BD4680BDA7
:1052000028600020720A002080B500AF4FF4FA60D9
:1052100003F05EF80346184680BD00BF80B500AFBE
:10522000022012F05BFD80BD80B582B000AF034666
:10523000FB71074B01221A71FB79002B02D002206F
:1052400003F03CFD00F006F80837BD4680BD00BF06
:10525000640A002080B582B000AF00237B60002389
:105260003B6015480AF08AFF14480AF087FF0023C4
:105270003B6000237B6013E0114A7B68322101FB15
:1052800003F313441B78002B07D07B689BB21846AE
:1052900002F054FB3B6801333B607B6801337B6069
:1052A000084B1B881A463B689A4202D97B681D2B23
:1052B000E2D90837BD4680BD740A0020880A002064
:1052C00014590020700A002080B500AF02F0ECFAFB
:1052D00080BD00BF80B584B000AF03463960FB716C
:1052E0000023FB73FB79082B4FD801A252F823F05F
:1052F000155300002B530000415300004D53000094
:105300005953000065530000715300007B530000A7
:105310008353000003200BF065FD002001210122D2
:105320000CF0A6FB0346FB7332E004200BF05AFDA1
:105330000020002101220CF09BFB0346FB7327E0B9
:10534000002004F089FE0346FB7321E0022004F0F4
:1053500083FE0346FB731BE0032004F07DFE03463F
:10536000FB7315E038680DF019F90346FB730FE085
:1053700011F0C2FE0346FB730AE0012003F078FD42
:1053800006E0002003F074FD02E00223FB7300BF7F
:10539000FB7B18461037BD4680BD00BFB0B586B058
:1053A00000AF78600023FB750023FB734FF6FF739B
:1053B000BB814FF6FF737B814FF0FF333B614FF6AC
:1053C000FF733B817B68D3F80730B3F1FF3F19D0FF
:1053D0007B68D3F807206FF07F439A4212D07B6836
:1053E000D3F8072007F10A031046194602F0A8FD7A
:1053F000034683F00103DBB2002B03D00223FB75CD
:10540000FB7D0BE17B681A6807F10C031046194617
:1054100002F0AAFA0346FB73BB891D2B00F2B88089
:10542000FB7B002B22D0BB897E4A322101FB03F398
:1054300013441033D3F801207B68D3F807309A4225
:105440001ED0BB89774A322101FB03F3134410338A
:10545000D3F801303B61BB89322202FB03F2714B6E
:1054600013441846002103F00BF809E0BB893222EF
:1054700002FB03F26B4B13441846012103F000F8C2
:10548000BB897A6812686749322000FB03F30B443A
:10549000C3F80120BB897A6812796249322000FB87
:1054A00003F30B445A71BB897A68B2F8052092B2B3
:1054B0005C49322000FB03F30B44DA80BB89594A74
:1054C000322101FB03F3134418337A6802330B32A1
:1054D000116855689468D06819605D609C60D860F8
:1054E00011691961BB894F4A322101FB03F313444F
:1054F00003F1180213786FF300031370BB89494A54
:10550000322101FB03F3134403F11802137843F033
:1055100002031370BB897A68D27C02F00102D1B217
:10552000404A322000FB03F3134403F118021378BE
:1055300061F382031370BB893A4A322101FB03F302
:105540001344103300221A70BB897A68D2F80720FE
:105550003449322000FB03F30B441033C3F801201D
:10556000BB89304A322101FB03F313441033FF227D
:10557000DA71FB7B83F00103DBB2002B03D0BB8924
:10558000184602F0EDFDBB89184602F0D7F901E09C
:105590000323FB75FB7D002B24D13B69B3F1FF3F57
:1055A00020D07B68D3F807203B699A421AD007F1D4
:1055B00008033869194602F0C3FC0346002B11D0DA
:1055C0003B89322202FB03F2174B1A44BB8932217A
:1055D00001FB03F1134B0B441046194605F0B0FADA
:1055E0000346FB75FB7D002B17D17B68D3F8073092
:1055F000B3F1FF3F11D07B89322202FB03F20A4B49
:105600001A44BB89322101FB03F1064B0B441046BF
:10561000194605F0D3F80346FB75FB7D184618378D
:10562000BD46B0BD145900202860002080B584B06C
:1056300000AF78600023FB730023BB814FF6FF733C
:105640007B817B68B3F1FF3F02D102F0ADFD3FE00B
:1056500007F10C037868194602F086F90346002B1F
:1056600034D0BB891D4A322101FB03F313441033AC
:10567000D3F80130B3F1FF3F23D0BB89174A322161
:1056800001FB03F313441033D3F8012007F10A039D
:105690001046194602F054FC0346002B11D07B89BA
:1056A000322202FB03F20E4B1A44BB89322101FB6A
:1056B00003F10A4B0B441046194605F041FA034624
:1056C000FB73BB89184602F05DFD01E00223FB730A
:1056D000FB7B18461037BD4680BD00BF1459002023
:1056E0002860002080B586B000AFF860B9607A60AD
:1056F0000023FB750023BB8207F11403F8681946E9
:1057000002F032F90346002B00F05E817B6803F063
:105710000403002B0AD0BB8ABA68528892B2AE4901
:10572000322000FB03F30B4418339A807B6803F0AC
:105730000803002B09D0BB8ABA685279A6493220E7
:1057400000FB03F30B441833DA717B6803F010039A
:10575000002B0AD0BB8ABA68D28892B29E49322006
:1057600000FB03F30B4418331A817B6803F020031A
:10577000002B10D0BB8ABA68127A02F00102D1B2B3
:10578000954A322000FB03F3134403F11802137807
:1057900061F3820313707B6803F04003002B09D090
:1057A000BB8ABA68527A8C49322000FB03F30B445F
:1057B0002033DA707B6803F08003002B0AD0BB8AA9
:1057C000BA68528992B28449322000FB03F30B4439
:1057D00020339A807B6803F48073002B09D0BB8A46
:1057E000BA68127B7C49322000FB03F30B44203360
:1057F0009A717B6803F40073002B65D0BB8ABA688A
:10580000527BC2F30012D1B2734A322000FB03F381
:10581000134403F12002D37961F30413D371BB8ADB
:10582000BA68527BC2F30002D1B26B4A322000FB4D
:1058300003F3134403F12002D37961F30003D3711E
:10584000BB8ABA68527BC2F34002D1B2624A3220AC
:1058500000FB03F3134403F12002D37961F3410306
:10586000D371BB8ABA68527BC2F38002D1B25A4A62
:10587000322000FB03F3134403F12002D37961F3D8
:105880008203D371BB8ABA68527BC2F3C002D1B221
:10589000514A322000FB03F3134403F12002D37971
:1058A00061F3C303D371BB8ABA68527BC2F340125F
:1058B000D1B2494A322000FB03F3134403F1200222
:1058C000D37961F34513D3717B6803F48063002BB4
:1058D00009D0BB8ABA68927B3F49322000FB03F3B0
:1058E0000B4420331A727B6803F40063002B10D042
:1058F000BB8ABA68D27BC2F30402D1B2364A3220E4
:1059000000FB03F3134403F12002537A61F3040311
:1059100053727B6803F48053002B10D0BB8ABA68A3
:10592000D27BC2F34112D1B22B4A322000FB03F3E7
:10593000134403F12002537A61F3461353727B68D8
:1059400003F40053002B10D0BB8ABA68D27BC2F399
:10595000C012D1B2204A322000FB03F3134403F1FA
:105960002002537A61F3C71353727B6803F48043B8
:10597000002B09D0BB8ABA68127C1749322000FB81
:1059800003F30B4428339A707B6803F40043002B25
:1059900009D0BB8ABA68527C0F49322000FB03F35E
:1059A0000B442833DA707B6803F48033002B0DD06E
:1059B000BB8ABA68528A92B20749322000FB03F3CD
:1059C0000B4428339A8001E00223FB75FB7D1846C7
:1059D0001837BD4680BD00BF1459002080B58AB07D
:1059E00002AFF860B9607A60FB700023FB774FF676
:1059F000FF73FB820023BB6107F11603F8681946A9
:105A000001F0B2FF0346002B3FD0FB8A184601F09D
:105A1000C1FFB861BB69002B34D0FB780093002331
:105A20000193F868B969BA687B6803F003FF03461D
:105A3000FB77FB7F042B2AD1BB69D3F81130B3F17C
:105A4000FF3F24D0BB69D3F8112007F1140310469F
:105A5000194602F075FA0346002B12D0BB8A322297
:105A600002FB03F20C4B1A44FB8A322101FB03F1C7
:105A70000A4B0B441046194604F0A0FE0346FB7780
:105A800005E004E00223FB7701E00223FB77FB7FC4
:105A900018462037BD4680BD2860002014590020DC
:105AA00080B586B000AFF860B9601346FB71002383
:105AB000FB750023BB8207F11403F868194601F057
:105AC00053FF0346002B0AD0BB8A322202FB03F3AA
:105AD00003F11002054B1A44BB681A6001E002236F
